:040000008031B8286B
:100008007E14803140017F08FC004E010C1EB3288D
:100018007E01CA1EB328FA300032890B102840012D
:100028000D0E890C0139F9004B181C2801301D28C8
:10003800003079060319A228B1288331C6238031FC
:1000480071084001CA007008C900962802304906A4
:100058004A04031D412841015E08FA005D08F900C1
:100068000830FB007A0DFA0CF90CFB0B362803302C
:100078007905F00000307A055A28CD308600003026
:10008800870030308400003085001030F9001600F9
:100098001A00F90B4B2840014A08C1004908C00062
:1000A8008231312280310E30F0000030F10083318E
:1000B800A5238031E130F90079084001920596289E
:1000C800023049064A04031D9B2841015E08FA00D4
:1000D8005D08F9000430FB007A0DFA0CF90CFB0BF3
:1000E80070280F307905F00000307A058F2896289F
:1000F8000F3041015D05F00000305E05F1008331ED
:10010800A523803101304001CB070030CC3D962833
:100118000E30F0000030F1008331A523803101302A
:10012800400197280130CB070030CC3DB1281E3064
:10013800F90079089204CB01CC01B1284C08003AA7
:100148000319A7289F284B0884000A3004020318C3
:100158009F2883310435823E82007E01CA127C08C2
:100168004001FF007E1009008031BA284001C90112
:10017800CA01CB01CC01CD3084000030850012309B
:100188008331E0237E1040018031CA288331D02397
:1001980080318331BC238031833126238031833100
:1001A800D92380318331962380314101C501C601AD
:1001B800C901CA01FF30CB000330CC00C701C80118
:1001C8004101C61F582913186F290D08DE000C08B5
:1001D800DD004A08803AC2005E08803A4202031DE8
:1001E800F7285D0849020318092941015E08CA0079
:1001F8005D08C9004B084907C2004C084A3DC300C6
:10020800430D430CC800420CC70041015E08803A08
:10021800C2004C08803A4202031D14294B085D02B3
:100228000318262941015E08CC005D08CB004B0865
:100238004907C2004C084A3DC300430D430CC8009F
:10024800420CC7004001161C3F2941014708EC3EFB
:10025800C200FF30483DC3005E08803AC40043082E
:10026800803A4402031D3A2942085D0203185429C2
:1002780040011610542941014708143EC2000030BD
:10028800483DC3004308803AC4005E08803A4402EF
:10029800031D50295D084202031854294001161411
:1002A8004101C501C6016F294608803AC200803065
:1002B8004202031D61290A304502031C6A294101D3
:1002C8001314FF30C500FF30C6006F29013041010B
:1002D800C5070030C63DCD30860000308700A0300D
:1002E8008400003085001030C20016001A00C20BCE
:1002F800792983316B2380314101200821040319B6
:100308009929E428FF30CB000330CC00C901CA0189
:10031800E2288231DE228031E4288231BA2280311B
:10032800E428833102238031E428CD308600003070
:100338008700B03084000030850010304101C200D1
:1003480016001A00C20BA4298131C0218031410155
:100358003108003A0319B129E4283008003A031992
:100368008629033A03198D29073A03199129013A75
:1003780003199529E428E428B03086000030870066
:10038800A03084000030850010304001C8001600FD
:100398001A00C80BCB2983316B2381314101200816
:1003A8002104031DF8293C35B03E86008701403FF3
:1003B800C000413FC10006304001C2000030C30008
:1003C80041013C08013E4001C400003041013D3D6F
:1003D8004001C50082316122400143084101BD004E
:1003E800400142084101BC004108B1004008B0008A
:1003F800080040019701960198017E01B901C401E6
:10040800CF01FF30B800FF30C3007F30CE00FF308F
:1004180040019200BF309300FF30910000308B1BE9
:100428000130C2008B1355307D018F00AA308F0038
:100438000F101730CB0010307E01A6000930A30042
:1004480055307D018F00AA308F000F144001421CE7
:100458002F2A8B1708008B130800303086000030D5
:10046800870020308400003085001030F800160026
:100478001A00F80B3B2A83314A23823140012008B5
:100488002104031D08003E35303E860087014008E0
:10049800C03F4108C13F0630F0000030F1003E087F
:1004A800013EF20000303F3DF30082318E22710898
:1004B8004001BF007008BE00080040014208430424
:1004C8000319892AC701C70AC31B742A0130C23518
:1004D800C30D890B6B2A0130C6004608C707682A76
:1004E80043084502031D7A2A42084402031C802A55
:1004F8004208C4024308C53B0130C336C20C890B0D
:10050800812A0130C702031D742A4508C300440824
:10051800C2000800700871040319B52AF501F50A2C
:10052800F11BA02A0130F035F10D890B972A013013
:10053800F4007408F507942A71087302031DA62AAB
:1005480070087202031CAC2A7008F2027108F33BAF
:100558000130F136F00C890BAD2A0130F502031D8C
:10056800A02A7308F1007208F00008004001C301D6
:10057800C4014408803AC20080304202031DC62AE2
:100588000F30430203180800400116157D30890B0F
:10059800CB2A4001161106304001C2000030890BF9
:1005A800D32AC20BD32A003201304001C3070030DE
:1005B800C43DBD2A4001C301C4014408803AC200B9
:1005C80080304202031DEA2A0F3043020318080054
:1005D800400116154B30890BEF2A400116110630E1
:1005E8004001C200E730890BF72AC20BF72A003214
:1005F80001304001C3070030C43DE12A4001C30176
:10060800C4014408803AC20080304202031D0E2B08
:100618000F3043020318080040011615AF30890B4C
:10062800132B4001161106304001C200CE30890B51
:100638001B2BC20B1B2B003201304001C3070030BB
:10064800C43D052B4101DD01DE0101309400950117
:100658009601990197139B019C011308F3390438FB
:1006680093009317131613131A121A109A101714CB
:10067800971417111E149E101E119E111E129E1201
:100688004001111091147E01B81408000630F000E2
:100698000030F10040012E08013EF20000302F3DED
:1006A800F30082318E22833140012D087106031D2B
:1006B8005F2B2C087006031D632B0130642B003060
:1006C800F600F7017608A0007708A10008004101AC
:1006D8002D082F06031D722B2C082E06031D762BC2
:1006E8000130772B00304001C200C30142084101AC
:1006F800A000400143084101A100080080312128E1
:1007080080312A28803163288031642880317B2811
:1007180080317C2880318B2880318C288031962844
:1007280080319B284001CB01CC01FF3092007E0133
:10073800C3014E0116167E01C816C9160B178B1772
:100748000800E130F20072084001970570080F397F
:100758000907F200720897040800083042019F0058
:1007680090309D0024309E0019309B009C010800A9
:10077800623051018D008F01910102309300900188
:100788009201080040010D360F39F200F30172089A
:10079800F0007308F10008008131FD2183318331B5
:1007A800BC2383318331B1230800400111117E013C
:1007B8003811400116110800640080010131890BCD
:0407C800E12B0034ED
:020000040001F9
:0A000E00EC3FFF3B9F3FFF3FFF3F29
:00000001FF
