:040000008031A4287F
:100008007E14803140017F08A9007E01551C10280C
:1000180055108331FA2380314E010C1E9F287E0132
:10002800CA1E9F285330890B1728000040010D0E67
:10003800890C0139A60041182328013024280030F2
:10004800260603198E289D2884315F248031710883
:100058004001C0007008BF00822802303F064004FB
:10006800031D43284808A7004708A6000830A80031
:10007800270DA70CA60CA80B3C28033063284001C9
:100088004008A2003F08A10049308131D8218031C1
:100098007828E130A60026089205822802303F061B
:1000A8004004031D87284808A7004708A600043015
:1000B800A800270DA70CA60CA80B5D280F30260555
:1000C800F000003027057B2882280F304705F00014
:1000D80000304805F10084313E2480310130400170
:1000E800C1070030C23D82280E30F0000030F10018
:1000F80084313E2480310130400183280130C1071A
:100108000030C23D9D281E30A60026089204C10179
:10011800C2019D284208003A031993288B284108F8
:1001280084000A30040203188B28843104351B3EEE
:1001380082007E01CA1240012908FF007E100900D2
:100148008031A6283F308400003085001A30843181
:1001580079247E1040018031B128843169248031AE
:1001680084315524803183310123803184317224D4
:10017800803184312F248031FF30400193007E018B
:10018800CE01400193107E0153144001BD01BE0110
:10019800C501C601FF30D9000330DA00C301C4012C
:1001A8008331D92380314001BE1F4D2941011318E5
:1001B80065290D084001C80041010C084001C7002D
:1001C8004608803ABA004808803A3A02031DEE28E9
:1001D800470845020318002940014808C600470897
:1001E800C50059084507BA005A08463DBB003B0DF3
:1001F8003B0CC4003A0CC30040014808803ABA00DE
:100208005A08803A3A02031D0B2959084702031875
:100218001D2940014808DA004708D9005908450750
:10022800BA005A08463DBB003B0D3B0CC4003A0CD3
:10023800C3004001161C35294308EC3EBA00FF30C4
:10024800443DBB004808803ABC003B08803A3C0269
:10025800031D30293A08470203184929400116109E
:1002680049294308143EBA000030443DBB003B080E
:10027800803ABC004808803A3C02031D45294708DB
:100288003A0203184929400116144001BD01BE0174
:1002980065293E08803ABA0080303A02031D562983
:1002A8000A303D02031C602941011314FF3040014C
:1002B800BD00FF30BE00652901304001BD07003098
:1002C800BE3D493083312623803140012A082B0462
:1002D80003198429D728FF30D9000330DA00C50173
:1002E800C601C301C401D72883316E238031D728C2
:1002F80083314A238031D728833192238031D7280C
:10030800493081319D21803140013408003A031978
:100318008E29D7283308003A03196F29033A03199D
:100328007829073A03197C29013A03198029D72823
:10033800D7284001B900390883312623813140018B
:100348002A082B04031DD32939080C3E860087018F
:1003580001353907B500350886008701403FB700E9
:10036800413FB8000630AA000030AB0039080C3E07
:1003780086008701403FB500413FB6003508013E81
:10038800AC000030363DAD008231A822400139086A
:100398000C3E860087012A08C03F2B08C13F380859
:1003A800B4003708B30008004001A50025088231D1
:1003B8007722813176087704031D0800400125085B
:1003C8000E3E8600870101352507A3002308860015
:1003D80087012108C03F2208C13F0630F0000030E5
:1003E800F10025080E3E86008701403FA300413FEB
:1003F800A4002308013EF2000030243DF3008231BE
:10040800D522400125080E3E860087017008C03FAE
:100418007108C13F080040019701960198017E01CB
:10042800B901C401CF01FF30B800FF30C3007F30ED
:10043800CE00FF3040019200BF309300FF309100A2
:1004480000308B1B0130AA008B1355307D018F00C3
:10045800AA308F000F101730CB0010307E01A60095
:100468000930A30055307D018F00AA308F000F148A
:1004780040012A1C412A8B1708008B130800FD0035
:100488007D088331B623823170087104031D08008A
:100498007D080C3E8600870101357D07F900790843
:1004A80086008701403FFB00413FFC000630F0001A
:1004B8000030F1007D080C3E86008701403FF900BE
:1004C800413FFA007908013EF20000307A3DF3001E
:1004D8008231D5227D080C3E860087017008C03F16
:1004E8007108C13F08004001A00020080C3E8600AA
:1004F8008701403FF800413FF9000630F000003026
:10050800F10020080E3E86008701403FFA00413F77
:10051800FB007A08013EF20000307B3DF300823197
:10052800D522823179087106031D9C2A7808700645
:10053800031DA02A0130A12A0030FC00FD017C081F
:10054800F6007D08F700080040012A082B0403196B
:10055800D02AAF01AF0AAB1BBB2A0130AA35AB0DBD
:10056800890BB22A0130AE002E08AF07AF2A2B083C
:100578002D02031DC12A2A082C02031CC72A2A0897
:10058800AC022B08AD3B0130AB36AA0C890BC82A4C
:100598000130AF02031DBB2A2D08AB002C08AA00AE
:1005A8000800700871040319FC2AF501F50AF11B0B
:1005B800E72A0130F035F10D890BDE2A0130F4000D
:1005C8007408F507DB2A71087302031DED2A700809
:1005D8007202031CF32A7008F2027108F33B01301F
:1005E800F136F00C890BF42A0130F502031DE72AD5
:1005F8007308F1007208F00008004001C701C80143
:1006080001304101940095019601990197139B01CE
:100618009C011308F3390438930093171316131326
:100628001A121A109A101714971417111E149E10E4
:100638001E119E111E129E124001111091147E016E
:10064800B81408004001B20032080C3E8600870149
:10065800403FAC00413FAD0032080E3E86008701A6
:10066800403FAE00413FAF002D082F06031D3E2B33
:100678002C082E06031D422B0130432B0030B000FE
:10068800B1013008AA003108AB0008004001AB01F5
:10069800AC012C08803AAA0080302A02031D562B90
:1006A8000F302B0203180800400116157D30890B06
:1006B8005B2B4001161106304001AA000030890B5F
:1006C800632BAA0B632B003201304001AB070030CB
:1006D800AC3D4D2B4001AB01AC012C08803AAA007F
:1006E80080302A02031D7A2B0F302B0203180800D2
:1006F800400116154B30890B7F2B4001161106302F
:100708004001AA00E730890B872BAA0B872B003200
:1007180001304001AB070030AC3D712B4001AB010B
:10072800AC012C08803AAA0080302A02031D9E2BB7
:100738000F302B020318080040011615AF30890B43
:10074800A32B4001161106304001AA00CE30890BB8
:10075800AB2BAA0BAB2B003201304001AB070030AA
:10076800AC3D952BF80078080C3E86008701403F89
:10077800F200413FF30078080E3E86008701403FB3
:10078800F400413FF50073087506031DCD2B720870
:100798007406031DD12B0130D22B0030F600F7016F
:1007A8007608F0007708F1000800400198148B13D0
:1007B800FF30D9000330DA00C501C601C301C40106
:1007C800C101C201493083312623833140012A08FF
:1007D8002B04031DF42B493081319D218331E62BF5
:1007E8008D1E0E18F42B8B179810080040019814D2
:1007F8008B13FF30D9000330DA00C501C601C301ED
:10080800C401C101C20149308331B6238331700864
:100818007104031D142C4930823143228331072C83
:1008280040018D1E0E18142C8B179810080080316B
:1008380028288031312880314D2880315228803154
:10084800682880316928803177288031782880317C
:100858008228803187284001C101C201FF309200FF
:100868007E01C3014E0116167E01C816C9160B1764
:100878008B170800E130F2007208400197057008F4
:100888000F390907F200720897040800083042017E
:100898009F0090309D0024309E0019309B009C01E1
:1008A8000800623051018D008F01910102309300E0
:1008B80090019201080040010D360F39F200F30152
:1008C8007208F0007308F100080082310F228431A9
:1008D80084315524843184314A240800400111119F
:1008E8007E013811400116110800640080010131B1
:0608F800890B7A2C00348C
:020000040001F9
:0A000E00EC3FFF3B9F3FFF3FFF3F29
:00000001FF
