:040000008031C22861
:100008007E14803140017F08A9007E01551C10280C
:1000180055108431182480314E010C1EBD287E01F4
:10002800CA1EBD285330890B1728000040010D0E49
:10003800890C0139A60041182328013024280030F2
:1000480026060319AC28BB2884317D248031710829
:100058004001C0007008BF000F30A60026089305B5
:100068000F30A600260898053F08A6000330A635DD
:10007800FF3E031D3B282635A70027089804A02823
:1000880002303F064004031D5A284808A7004708C5
:10009800A6000830A800270DA70CA60CA80B4F280F
:1000A80003302605F0000030270566284001400887
:1000B800A2003F08A10049308131F62180310E307D
:1000C800F0000030F10084315C248031E1304001DF
:1000D800A60026089205A02802303F064004031D0A
:1000E800A5284808A7004708A6000430A800270D3F
:1000F800A70CA60CA80B7B280F302605F0000030B3
:1001080027059928A0280F304705F000003048053A
:10011800F10084315C24803101304001C107003096
:10012800C23DA0280E30F0000030F10084315C247C
:10013800803101304001A1280130C1070030C23DA3
:10014800BB281E30A60026089204C101C201BB28A4
:100158004208003A0319B128A928410884000A3046
:1001680004020318A92884310435393E82007E012F
:10017800CA1240012908FF007E1009008031C428F6
:100188003F308400003085001A30843197247E1077
:1001980040018031CF288431872480318431732411
:1001A800803183311F238031843190248031843120
:1001B8004D248031FF30400193007E01CE01400183
:1001C80093107E0153144001BD01BE01C501C60153
:1001D800FF30D9000330DA00C301C4018331F723AB
:1001E80080314001BE1F6B294101131883290D0876
:1001F8004001C80041010C084001C7004608803A88
:10020800BA004808803A3A02031D0C2947084502FB
:1002180003181E2940014808C6004708C5005908A8
:100228004507BA005A08463DBB003B0D3B0CC400CD
:100238003A0CC30040014808803ABA005A08803A8C
:100248003A02031D29295908470203183B2940018E
:100258004808DA004708D90059084507BA005A087B
:10026800463DBB003B0D3B0CC4003A0CC3004001AB
:10027800161C53294308EC3EBA00FF30443DBB002E
:100288004808803ABC003B08803A3C02031D4E29CE
:100298003A084702031867294001161067294308DE
:1002A800143EBA000030443DBB003B08803ABC0015
:1002B8004808803A3C02031D632947083A0203189C
:1002C8006729400116144001BD01BE0183293E087B
:1002D800803ABA0080303A02031D74290A303D0280
:1002E800031C7E2941011314FF304001BD00FF307B
:1002F800BE00832901304001BD070030BE3D4930B2
:1003080083314423803140012A082B040319A22990
:10031800F528FF30D9000330DA00C501C601C30152
:10032800C401F52883318C238031F5288331682373
:100338008031F5288331B0238031F5284930813167
:10034800BB21803140013408003A0319AC29F52853
:100358003308003A03198D29033A03199629073AF5
:1003680003199A29013A03199E29F528F52840010D
:10037800B900390883314423813140012A082B040C
:10038800031DF12939080C3E86008701013539071C
:10039800B500350886008701403FB700413FB800E7
:1003A8000630AA000030AB0039080C3E86008701F1
:1003B800403FB500413FB6003508013EAC00003073
:1003C800363DAD008231C622400139080C3E860018
:1003D80087012A08C03F2B08C13F3808B4003708F6
:1003E800B30008004001A50025088231952281311B
:1003F80076087704031D0800400125080E3E860094
:10040800870101352507A3002308860087012108F5
:10041800C03F2208C13F0630F0000030F100250837
:100428000E3E86008701403FA300413FA4002308F9
:10043800013EF2000030243DF3008231F3224001F6
:1004480025080E3E860087017008C03F7108C13F2D
:10045800080040019701960198017E01B901C40185
:10046800CF01FF30B800FF30C3007F30CE00FF302F
:1004780040019200BF309300FF30910000308B1B89
:100488000130AA008B1355307D018F00AA308F00F0
:100498000F101730CB0010307E01A6000930A300E2
:1004A80055307D018F00AA308F000F1440012A1C9F
:1004B8005F2A8B1708008B130800FD007D08833125
:1004C800D423823170087104031D08007D080C3E96
:1004D8008600870101357D07F900790886008701C4
:1004E800403FFB00413FFC000630F0000030F100C7
:1004F8007D080C3E86008701403FF900413FFA0025
:100508007908013EF20000307A3DF3008231F3228F
:100518007D080C3E860087017008C03F7108C13F06
:1005280008004001A00020080C3E86008701403FDB
:10053800F800413FF9000630F0000030F1002008D3
:100548000E3E86008701403FFA00413FFB007A08D3
:10055800013EF20000307B3DF3008231F32282310C
:1005680079087106031DBA2A78087006031DBE2A89
:100578000130BF2A0030FC00FD017C08F6007D0830
:10058800F700080040012A082B040319EE2AAF01DE
:10059800AF0AAB1BD92A0130AA35AB0D890BD02A7B
:1005A8000130AE002E08AF07CD2A2B082D02031DFF
:1005B800DF2A2A082C02031CE52A2A08AC022B0889
:1005C800AD3B0130AB36AA0C890BE62A0130AF02ED
:1005D800031DD92A2D08AB002C08AA0008007008B2
:1005E800710403191A2BF501F50AF11B052B0130CB
:1005F800F035F10D890BFC2A0130F4007408F50779
:10060800F92A71087302031D0B2B70087202031C70
:10061800112B7008F2027108F33B0130F136F00C2F
:10062800890B122B0130F502031D052B7308F1000D
:100638007208F00008004001C701C80101304101FB
:10064800940095019601990197139B019C01130849
:10065800F339043893009317131613131A121A1048
:100668009A101714971417111E149E101E119E111C
:100678001E129E124001111091147E01B814080038
:100688004001B20032080C3E86008701403FAC00B2
:10069800413FAD0032080E3E86008701403FAE0064
:1006A800413FAF002D082F06031D5C2B2C082E069A
:1006B800031D602B0130612B0030B000B101300800
:1006C800AA003108AB0008004001AB01AC012C08BE
:1006D800803AAA0080302A02031D742B0F302B02A7
:1006E80003180800400116157D30890B792B40014D
:1006F800161106304001AA000030890B812BAA0B85
:10070800812B003201304001AB070030AC3D6B2B30
:100718004001AB01AC012C08803AAA0080302A02C3
:10072800031D982B0F302B020318080040011615E3
:100738004B30890B9D2B4001161106304001AA0051
:10074800E730890BA52BAA0BA52B003201304001FD
:10075800AB070030AC3D8F2B4001AB01AC012C083E
:10076800803AAA0080302A02031DBC2B0F302B02CE
:100778000318080040011615AF30890BC12B400142
:10078800161106304001AA00CE30890BC92BAA0BDE
:10079800C92B003201304001AB070030AC3DB32B10
:1007A800F80078080C3E86008701403FF200413F80
:1007B800F30078080E3E86008701403FF400413F71
:1007C800F50073087506031DEB2B72087406031DEC
:1007D800EF2B0130F02B0030F600F7017608F0001F
:1007E8007708F1000800400198148B13FF30D900F6
:1007F8000330DA00C501C601C301C401C101C20149
:10080800493083314423833140012A082B04031DD6
:10081800122C49308131BB218331042C8D1E0E18D6
:10082800122C8B1798100800400198148B13FF3076
:10083800D9000330DA00C501C601C301C401C101F2
:10084800C20149308331D423843170087104031DF7
:10085800322C4930823161228431252C40018D1E91
:100868000E18322C8B1798100800803128288031F8
:10087800442880316F288031702880318628803163
:10088800872880319528803196288031A0288031AA
:10089800A5284001C101C201FF3092007E01C301B9
:1008A8004E0116167E01C816C9160B178B170800BD
:1008B800E130F20072084001970570080F39090706
:1008C800F200720897040800083042019F00903037
:1008D8009D0024309E0019309B009C010800623066
:1008E80051018D008F019101023093009001920116
:1008F800080040010D360F39F200F3017208F000CC
:100908007308F100080082312D2284318431732468
:100918008431843168240800400111117E013811A6
:10092800400116110800640080010131890B982CE0
:02093800003489
:020000040001F9
:0A000E00EC3FFF3B9F3FFF3FFF3F29
:00000001FF
