:0400000081318E2993
:100008007E14803140017F08FD007E01551C1028B8
:1000180055108231F52280314E010C1E89297E014E
:10002800CA1E89295330890B1728000040010D0E7C
:10003800890C0139FA00541823280130242800308B
:100048007A0603197829872985316C25803171084A
:100058004001D3007008D2000F30FA007A088E05EC
:100068000F30FA007A0898055208FA000330FA357A
:10007800FF3E031D3B287A35FB007B0898046C295A
:1000880098145308FB005208FA007B0DFB0CFA0C7D
:100098007B0DFB0CFA0C7B0DFB0CFA0C7A1C602810
:1000A8000730FB005830FA005A30890B5928FA0BF0
:1000B8005928FB0B59286B280230FB004530FA0001
:1000C800AA30890B6528FA0B6528FB0B65284001C7
:1000D80098100430FB00CF30FA000230890B7228E8
:1000E800FA0B7228FB0B7228400198145308FB0086
:1000F8005208FA007B0DFB0CFA0C7B0DFB0CFA0C7A
:100108007A1C92280730FB005830FA005A30890BC5
:100118008B28FA0B8B28FB0B8B289D280230FB00C1
:100128004530FA00AA30890B9728FA0B9728FB0B61
:100138009728400198100430FB00CF30FA000230B5
:10014800890BA428FA0BA428FB0BA42840019814B7
:100158005308FB005208FA007B0DFB0CFA0C7A1CC2
:10016800C1280730FB005830FA005A30890BBA28EA
:10017800FA0BBA28FB0BBA28CC280230FB00453012
:10018800FA00AA30890BC628FA0BC628FB0BC6282A
:10019800400198100430FB00CF30FA000230890B80
:1001A800D328FA0BD328FB0BD32840019814521CF0
:1001B800E9280730FB005830FA005A30890BE2284A
:1001C800FA0BE228FB0BE228F4280230FB0045304A
:1001D800FA00AA30890BEE28FA0BEE28FB0BEE2862
:1001E800400198100430FB00CF30FA000230890B30
:1001F800FB28FA0BFB28FB0BFB288B130230400172
:1002080052065304031D19295B08FB005A08FA001B
:100218000830FC007B0DFB0CFA0CFC0B0E2903309C
:100228007A05F00000307B05322942308600003024
:10023800870030308400003085001030FA00160046
:100248001A00FA0B232940015308C1005208C000C4
:100258008331C72380310E30F0000030F100853142
:100268004B258031E130FA007A08400192056C296B
:10027800023052065304031D71295B08FB005A081B
:10028800FA000430FC007B0DFB0CFA0CFC0B472930
:100298000F307A05F00000307B0565296C290F3096
:1002A8005A05F00000305B05F10085314B2580319F
:1002B80001304001D4070030D53D6C290E30F000E4
:1002C8000030F10085314B258031013040016D2926
:1002D8000130D4070030D53D87291E30FA007A084E
:1002E8009204D401D50187295508003A03197D29BC
:1002F8007529540884000A300402031875298531C9
:100308000435023E82007E01CA127D084001FF00CA
:100318007E10090081319029423084000030850028
:100328001A30853186257E10400181319B2985311F
:10033800762581318531622581318431502481319E
:1003480085317F25813185313C258131FF30400160
:1003580093007E01CE01400193107E0153144101A8
:10036800C901CA014001D801D901FF30DC000330BE
:10037800DD00D601D7018231BA2281314101CA1F7D
:10038800582A13186F2A0D084001DB0041010C0898
:100398004001DA005908803A4101C60040015B0873
:1003A800803A41014602031DDC2940015A085802DF
:1003B8000318F42940015B08D9005A08D8005C08E2
:1003C80058074101C60040015D08593D4101C70079
:1003D800470D470C4001D7004101460C4001D600AB
:1003E80040015B08803A4101C60040015D08803A3F
:1003F80041014602031D032A40015C085A02031802
:100408001B2A40015B08DD005A08DC005C0858071D
:100418004101C60040015D08593D4101C700470D33
:10042800470C4001D7004101460C4001D60040016D
:10043800161C392A5608EC3E4101C600FF3040011F
:10044800573D4101C70040015B08803A4101C8009F
:100458004708803A4802031D342A460840015A02D8
:100468000318542A40011610542A5608143E410114
:10047800C60000304001573D4101C7004708803A97
:10048800C80040015B08803A41014802031D502A18
:1004980040015A08410146020318542A4001161423
:1004A8004101C901CA016F2A4A08803AC600803052
:1004B8004602031D612A0A304902031C6A2A4101C7
:1004C8001314FF30C900FF30CA006F2A0130410100
:1004D800C9070030CA3D4230860000308700A0308E
:1004E8008400003085001030C60016001A00C60BC4
:1004F800792A853116258131410120082104031903
:10050800932AC229BF29843199248131C22984318F
:1005180075248131C2298431BD248131C2294230F8
:10052800860000308700B23084000030850010302B
:100538004101C60016001A00C60B9E2A83312D23DE
:10054800813141013308003A0319AB2AC229320824
:10055800003A0319862A033A0319872A073A031926
:100568008B2A013A03198F2AC229C2298B13FF301B
:100578004001DC000330DD00D801D901D601D701E4
:10058800D401D5014230860000308700A0308400B5
:100598000030850010304101C50016001A00C50B57
:1005A800D12A853116258231410120082104031DF5
:1005B800F02A4230860000308700B23084000030D4
:1005C800850010304101C50016001A00C50BE82A45
:1005D80083312D238231C62A40018D1AF02A8B17C8
:1005E80008008B13FF304001DC000330DD00D80128
:1005F800D901D601D701D401D50142308600003097
:10060800870020308400003085001030F900160083
:100618001A00F90B0B2B853129258231400120085E
:100628002104031D292B423086000030870030301A
:100638008400003085001030F90016001A00F90B0C
:10064800212B833197238231012B8D1A292B8B176C
:100658000800B230860000308700A03084000030E7
:10066800850010304101C20016001A00C20B382B59
:10067800853116258331410120082104031D5D2B96
:100688003E35B23E86008701403FC300413FC4006B
:100698000630A0000030A1003E08013EA200003054
:1006A8003F3DA3008331F72341012108BF00200803
:1006B800BE004408B3004308B20008004001970197
:1006C800960198017E01B901C401CF01FF30B8003D
:1006D800FF30C3007F30CE00FF3040019200BF30B2
:1006E8009300FF30910000308B1B01304101A000C6
:1006F8008B1355307D018F00AA308F000F101730F3
:10070800CB0010307E01A6000930A30055307D01D2
:100718008F00AA308F000F144101201C952B8B17D6
:1007280008008B1308003030860000308700203026
:100738008400003085001030F60016001A00F60B11
:10074800A12B853129258331400120082104031D6F
:1007580008003C35303E86008701403FF700413FA6
:10076800F8000630F0000030F1003C08013EF200CD
:1007780000303D3DF3008431242471084001BD0060
:100788007008BC0008003030860000308700203038
:100798008400003085001030F80016001A00F80BAD
:1007A800D12B8431E1248331400120082104031D29
:1007B80008003E35303E860087014008C03F4108AA
:1007C800C13F0630F0000030F1003E08013EF20063
:1007D80000303F3DF3008431242471084001BF00FC
:1007E8007008BE00080041012008210403191F2CCD
:1007F800A501A50AA11B0A2C0130A035A10D890B62
:10080800012C0130A4002408A507FE2B210823028F
:10081800031D102C20082202031C162C2008A202FB
:100828002108A33B0130A136A00C890B172C0130FD
:10083800A502031D0A2C2308A1002208A000080015
:100848007008710403194B2CF501F50AF11B362CBD
:100858000130F035F10D890B2D2C0130F4007408AE
:10086800F5072A2C71087302031D3C2C70087202CC
:10087800031C422C7008F2027108F33B0130F13678
:10088800F00C890B432C0130F502031D362C73083C
:10089800F1007208F00008004001DA01DB010130C4
:1008A8004101940095019601990197139B019C01C0
:1008B8001308F339043893009317131613131A12F5
:1008C8001A109A101714971417111E149E101E113F
:1008D8009E111E129E124001111091147E01B8142F
:1008E80008004101A101A2012208803AA00080303D
:1008F8002002031D812C0F3021020318080040013B
:1009080016157D30890B862C4001161106304101E1
:10091800A0000030890B8E2CA00B8E2C00320130E9
:100928004101A1070030A23D782C4101A101A2019B
:100938002208803AA00080302002031DA52C0F3029
:10094800210203180800400116154B30890BAA2C08
:100958004001161106304101A000E730890BB22C86
:10096800A00BB22C003201304101A1070030A23D9A
:100978009C2C4101A101A2012208803AA0008030EC
:100988002002031DC92C0F30210203180800400162
:100998001615AF30890BCE2C4001161106304101D7
:1009A800A000CE30890BD62CA00BD62C00320130FB
:1009B8004101A1070030A23DC02C0630F0000030F4
:1009C800F10040012E08013EF20000302F3DF300F7
:1009D80084312424843140012D087106031DF62C2E
:1009E8002C087006031DFA2C0130FB2C0030F60091
:1009F800F7017608A0007708A100080080312828B0
:100A08008031442881313B2981313C298131522967
:100A180081315329813161298131622981316C29E0
:100A28008131712941012D082F06031D1D2D2C0828
:100A38002E06031D212D0130222D0030B000B101FA
:100A48003008A0003108A100080040012D082F0639
:100A5800031D302D2C082E06031D342D0130352D95
:100A68000030F000F1017008A0007108A100080032
:100A78004001D401D501FF3092007E01C3014E012F
:100A880016167E01C816C9160B178B170800E13019
:100A9800F20072084001970570080F390907F20043
:100AA800720897040800083042019F0090309D00AA
:100AB80024309E0019309B009C01080062305101CF
:100AC8008D008F019101023093009001920108007E
:100AD80040010D360F39F200F3017208F000730877
:100AE800F100080083316223853185316225853123
:100AF800853157250800400111117E013811400148
:100B080016110800640080010131890B872D00341B
:020000040001F9
:0A000E00EC3FFF3B9F3FFF3FFF3F29
:00000001FF
