:040000008031DD2846
:100008007E14803140017F08FD007E01551C1028B8
:1000180055108231442280314E010C1ED8287E01B1
:10002800CA1ED8285330890B1728000040010D0E2E
:10003800890C0139FA00541823280130242800308B
:100048007A060319C728D6288431BB248031710861
:100058004001D3007008D2000F30FA007A088E05EC
:100068000F30FA007A0898055208FA000330FA357A
:10007800FF3E031D3B287A35FB007B089804981443
:100088004030FB006A30FA009830890B4928FA0B97
:100098004928FB0B492840019810BB28023052061A
:1000A8005304031D68285B08FB005A08FA0008304F
:1000B800FC007B0DFB0CFA0CFC0B5D2803307A0569
:1000C800F00000307B058128423086000030870030
:1000D80030308400003085001030FA0016001A0015
:1000E800FA0B722840015308C1005208C00083313E
:1000F800162380310E30F0000030F10084319A244C
:100108008031E130FA007A0840019205BB280230BC
:1001180052065304031DC0285B08FB005A08FA0066
:100128000430FC007B0DFB0CFA0CFC0B96280F30FE
:100138007A05F00000307B05B428BB280F305A053B
:10014800F00000305B05F10084319A2480310130E1
:100158004001D4070030D53DBB280E30F0000030F8
:10016800F10084319A24803101304001BC280130EB
:10017800D4070030D53DD6281E30FA007A089204FC
:10018800D401D501D6285508003A0319CC28C4282B
:10019800540884000A3004020318C4288431043542
:1001A800513E82007E01CA127D084001FF007E1088
:1001B80009008031DF2842308400003085001A3081
:1001C8008431D5247E1040018031EA288431C52449
:1001D80080318431B124803183319F23803184314F
:1001E800CE24803184318B248031FF30400193004C
:1001F8007E01CE01400193107E0153144101C901D3
:10020800CA014001D801D901FF30DC000330DD000C
:10021800D601D7018231092280314101CA1FA7299D
:100228001318BE290D084001DB0041010C084001EC
:10023800DA005908803A4101C60040015B08803A5B
:1002480041014602031D2B2940015A085802031890
:10025800432940015B08D9005A08D8005C085807B0
:100268004101C60040015D08593D4101C700470DE5
:10027800470C4001D7004101460C4001D60040011F
:100288005B08803A4101C60040015D08803A41019F
:100298004602031D522940015C085A0203186A29C4
:1002A80040015B08DD005A08DC005C085807410182
:1002B800C60040015D08593D4101C700470D470C84
:1002C8004001D7004101460C4001D6004001161CF0
:1002D80088295608EC3E4101C600FF304001573DD1
:1002E8004101C70040015B08803A4101C800470846
:1002F800803A4802031D8329460840015A02031820
:10030800A32940011610A3295608143E4101C6002E
:1003180000304001573D4101C7004708803AC800F6
:1003280040015B08803A41014802031D9F294001B2
:100338005A08410146020318A32940011614410135
:10034800C901CA01BE294A08803AC600803046025F
:10035800031DB0290A304902031CB92941011314AD
:10036800FF30C900FF30CA00BE2901304101C9076A
:100378000030CA3D4230860000308700A03084003B
:10038800003085001030C60016001A00C60BC829B8
:100398008431652480314101200821040319E229B0
:1003A80011290E298331E823803111298331C4238F
:1003B8008031112984310C24803111294230860082
:1003C80000308700B23084000030850010304101D1
:1003D800C60016001A00C60BED2982317C22803136
:1003E80041013308003A0319FA2911293208003A61
:1003F8000319D529033A0319D629073A0319DA2923
:10040800013A0319DE29112911298B13FF30400104
:10041800DC000330DD00D801D901D601D701D401B1
:10042800D5014230860000308700A03084000030BB
:10043800850010304101C50016001A00C50B202A9E
:10044800843165248231410120082104031D3F2A9B
:100458004230860000308700B230840000308500CA
:1004680010304101C50016001A00C50B372A823129
:100478007C228231152A40018D1A3F2A8B170800E9
:100488008B13FF304001DC000330DD00D801D901B7
:10049800D601D701D401D50142308600003087004B
:1004A80020308400003085001030F90016001A0052
:1004B800F90B5A2A8431782482314001200821041A
:1004C800031D782A423086000030870030308400CF
:1004D800003085001030F90016001A00F90B702A58
:1004E8008231E6228231502A8D1A782A8B17080029
:1004F800B230860000308700A030840000308500CC
:1005080010304101C20016001A00C20B872A84313C
:1005180065248231410120082104031DAC2A3E359F
:10052800B23E86008701403FC300413FC400063009
:10053800A0000030A1003E08013EA20000303F3D6F
:10054800A3008331462341012108BF002008BE00D3
:100558004408B3004308B20008004001970196011F
:1005680098017E01B901C401CF01FF30B800FF3006
:10057800C3007F30CE00FF3040019200BF309300AF
:10058800FF30910000308B1B01304101A0008B131C
:1005980055307D018F00AA308F000F101730CB0027
:1005A80010307E01A6000930A30055307D018F0070
:1005B800AA308F000F144101201CE42A8B17080071
:1005C8008B1308003030860000308700203084000C
:1005D800003085001030F60016001A00F60BF02ADD
:1005E800843178248231400120082104031D080049
:1005F8003C35303E86008701403FF700413FF80018
:100608000630F0000030F1003C08013EF2000030F6
:100618003D3DF3008331732371084001BD0070082C
:10062800BC0008003030860000308700203084008D
:10063800003085001030F80016001A00F80B202B47
:10064800843130248331400120082104031D08002F
:100658003E35303E860087014008C03F4108C13F13
:100668000630F0000030F1003E08013EF200003094
:100678003F3DF3008331732371084001BF007008C8
:10068800BE00080041012008210403196E2BA501B2
:10069800A50AA11B592B0130A035A10D890B502BA0
:1006A8000130A4002408A5074D2B21082302031DAF
:1006B8005F2B20082202031C652B2008A2022108B8
:1006C800A33B0130A136A00C890B662B0130A50293
:1006D800031D592B2308A1002208A0000800700858
:1006E800710403199A2BF501F50AF11B852B0130CA
:1006F800F035F10D890B7C2B0130F4007408F507F7
:10070800792B71087302031D8B2B70087202031C6E
:10071800912B7008F2027108F33B0130F136F00CAE
:10072800890B922B0130F502031D852B7308F1000C
:100738007208F00008004001DA01DB0101304101D4
:10074800940095019601990197139B019C01130848
:10075800F339043893009317131613131A121A1047
:100768009A101714971417111E149E101E119E111B
:100778001E129E124001111091147E01B814080037
:100788004101A101A2012208803AA0008030200284
:10079800031DD02B0F302102031808004001161545
:1007A8007D30890BD52B4001161106304101A00080
:1007B8000030890BDD2BA00BDD2B0032013041010D
:1007C800A1070030A23DC72B4101A101A2012208C7
:1007D800803AA00080302002031DF42B0F30210244
:1007E80003180800400116154B30890BF92B4001FE
:1007F800161106304101A000E730890B012CA00B2F
:10080800012C003201304101A1070030A23DEB2B41
:100818004101A101A2012208803AA00080302002F3
:10082800031D182C0F30210203180800400116156B
:10083800AF30890B1D2C4001161106304101A00074
:10084800CE30890B252CA00B252C0032013041011C
:10085800A1070030A23D0F2C0630F0000030F10057
:1008680040012E08013EF20000302F3DF300833195
:100878007323843140012D087106031D452C2C0873
:100888007006031D492C01304A2C0030F600F70190
:100898007608A0007708A100080080312828803158
:1008A800522880318A2880318B288031A1288031D4
:1008B800A2288031B0288031B1288031BB2880310E
:1008C800C02841012D082F06031D6C2C2C082E066C
:1008D800031D702C0130712C0030B000B1013008BC
:1008E800A0003108A100080040012D082F06031DB3
:1008F8007F2C2C082E06031D832C0130842C0030FD
:10090800F000F1017008A0007108A1000800400182
:10091800D401D501FF3092007E01C3014E011616A5
:100928007E01C816C9160B178B170800E130F200B4
:1009380072084001970570080F390907F20072081C
:1009480097040800083042019F0090309D00243031
:100958009E0019309B009C010800623051018D00F7
:100968008F0191010230930090019201080040012B
:100978000D360F39F200F3017208F0007308F10028
:1009880008008231B12284318431B1248431843128
:10099800A6240800400111117E01381140011611EA
:0E09A8000800640080010131890BD62C003458
:020000040001F9
:0A000E00EC3FFF3B9F3FFF3FFF3F29
:00000001FF
