:040000008031BC2867
:100008007E14803140017F08FD007E01551C1028B8
:1000180055108231202280314E010C1EB7287E01F6
:10002800CA1EB728FA300032890B172840010D0E76
:10003800890C0139FA00541823280130242800308B
:100048007A060319A628B5288431972480317108C7
:100058004001D3007008D2009A2802305206530497
:10006800031D47285B08FB005A08FA000830FC000B
:100078007B0DFB0CFA0CFC0B3C2803307A05F000D6
:1000880000307B0560284230860000308700303021
:100098008400003085001030FA0016001A00FA0BB0
:1000A800512840015308C1005208C0008231F22291
:1000B80080310E30F0000030F10084317624803138
:1000C800E130FA007A08400192059A280230520677
:1000D8005304031D9F285B08FB005A08FA000430EC
:1000E800FC007B0DFB0CFA0CFC0B75280F307A0515
:1000F800F00000307B0593289A280F305A05F0004D
:1001080000305B05F10084317624803101304001F4
:10011800D4070030D53D9A280E30F0000030F100A9
:10012800843176248031013040019B280130D40786
:100138000030D53DB5281E30FA007A089204D40163
:10014800D501B5285508003A0319AB28A328540847
:1001580084000A3004020318A328843104352D3E94
:1001680082007E01CA127D084001FF007E1009004E
:100178008031BE2842308400003085001A30843136
:10018800B1247E1040018031C9288431A1248031F6
:1001980084318D24803183317B2380318431AA24BA
:1001A8008031843167248031FF30400193007E0123
:1001B800CE0153144101C901CA014001D801D90136
:1001C800FF30DC000330DD00D601D7014101CA1F32
:1001D8008029131897290D084001DB0041010C08FC
:1001E8004001DA005908803A4101C60040015B0825
:1001F800803A41014602031D042940015A08580269
:1002080003181C2940015B08D9005A08D8005C086B
:1002180058074101C60040015D08593D4101C7002A
:10022800470D470C4001D7004101460C4001D6005C
:1002380040015B08803A4101C60040015D08803AF0
:1002480041014602031D2B2940015C085A0203188C
:10025800432940015B08DD005A08DC005C085807A8
:100268004101C60040015D08593D4101C700470DE5
:10027800470C4001D7004101460C4001D60040011F
:10028800161C61295608EC3E4101C600FF304001AA
:10029800573D4101C70040015B08803A4101C80051
:1002A8004708803A4802031D5C29460840015A0263
:1002B80003187C29400116107C295608143E410178
:1002C800C60000304001573D4101C7004708803A49
:1002D800C80040015B08803A41014802031D7829A3
:1002E80040015A084101460203187C2940011614AE
:1002F8004101C901CA0197294A08803AC6008030DD
:100308004602031D89290A304902031C922941012A
:100318001314FF30C900FF30CA009729013041018A
:10032800C9070030CA3D4230860000308700A0303F
:100338008400003085001030C60016001A00C60B75
:10034800A129843141248031410120082104031965
:10035800BE29EA288131E5218031EA288331C42386
:100368008031EA288331A0238031EA288331E823C9
:100378008031EA284230860000308700B23084009D
:100388000030850010304101C60016001A00C60B67
:10039800C92982315822803141013308003A0319B2
:1003A800D629EA283208003A0319AE29033A031974
:1003B800B229073A0319B629013A0319BA29EA28D2
:1003C800EA288B13FF304001DC000330DD00D80140
:1003D800D901D601D701D401D501423086000030B9
:1003E8008700A03084000030850010304101C5002E
:1003F80016001A00C50BFC298431412481314101C2
:1004080020082104031D1B2A423086000030870083
:10041800B23084000030850010304101C50016005C
:100428001A00C50B132A823158228131F129400163
:100438008D1A1B2A8B1708008B13FF304001DC0034
:100448000330DD00D801D901D601D701D401D50187
:10045800423086000030870020308400003085005C
:100468001030F90016001A00F90B362A843154248A
:100478008231400120082104031D542A423086009D
:100488000030870030308400003085001030F900DB
:1004980016001A00F90B4C2A8231C22282312C2A0A
:1004A8008D1A542A8B170800B23086000030870056
:1004B800A03084000030850010304101C2001600D1
:1004C8001A00C20B632A8431412482314101200879
:1004D8002104031D882A3E35B23E86008701403F2D
:1004E800C300413FC4000630A0000030A1003E0810
:1004F800013EA20000303F3DA30083312223410189
:100508002108BF002008BE004408B3004308B20019
:10051800080040019701960198017E01B901C401C4
:10052800CF01FF30B800FF30C3007F30CE00FF306E
:1005380040019200BF309300FF30910000308B1BC8
:1005480001304101A0008B1355307D018F00AA3086
:100558008F000F101730CB0010307E01A600093035
:10056800A30055307D018F00AA308F000F14410180
:10057800201CC02A8B1708008B1308003030860017
:100588000030870020308400003085001030F600ED
:1005980016001A00F60BCC2A84315424823140010B
:1005A80020082104031D08003C35303E86008701E1
:1005B800403FF700413FF8000630F0000030F100FE
:1005C8003C08013EF20000303D3DF30083314F23EB
:1005D80071084001BD007008BC000800303086007A
:1005E8000030870020308400003085001030F8008B
:1005F80016001A00F80BFC2A84310C2482314001C1
:1006080020082104031D08003E35303E860087017E
:100618004008C03F4108C13F0630F0000030F100FB
:100628003E08013EF20000303F3DF30083314F2386
:1006380071084001BF007008BE0008004101200891
:10064800210403194A2BA501A50AA11B352B01304A
:10065800A035A10D890B2C2B0130A4002408A50777
:10066800292B21082302031D3B2B20082202031CEF
:10067800412B2008A2022108A33B0130A136A00C7F
:10068800890B422B0130A502031D352B2308A1003D
:100698002208A0000800700871040319762BF501E0
:1006A800F50AF11B612B0130F035F10D890B582B40
:1006B8000130F4007408F507552B71087302031D07
:1006C800672B70087202031C6D2B7008F202710808
:1006D800F33B0130F136F00C890B6E2B0130F5023B
:1006E800031D612B7308F1007208F0000800400137
:1006F800DA01DB010130410194009501960199016D
:1007080097139B019C011308F3390438930093173E
:10071800131613131A121A109A1017149714171184
:100728001E149E101E119E111E129E1240011110C1
:1007380091147E01B81408004101A101A201220808
:10074800803AA00080302002031DAC2B0F3021021C
:1007580003180800400116157D30890BB12B4001A4
:10076800161106304101A0000030890BB92BA00BEF
:10077800B92B003201304101A1070030A23DA32B63
:100788004101A101A2012208803AA0008030200284
:10079800031DD02B0F302102031808004001161545
:1007A8004B30890BD52B4001161106304101A000B2
:1007B800E730890BDD2BA00BDD2B00320130410126
:1007C800A1070030A23DC72B4101A101A2012208C7
:1007D800803AA00080302002031DF42B0F30210244
:1007E8000318080040011615AF30890BF92B40019A
:1007F800161106304101A000CE30890B012CA00B48
:10080800012C003201304101A1070030A23DEB2B41
:100818000630F0000030F10040012E08013EF200E1
:1008280000302F3DF30083314F23843140012D08E0
:100838007106031D212C2C087006031D252C013080
:10084800262C0030F600F7017608A0007708A100F2
:10085800080080312828803131288031692880318A
:100868006A28803180288031812880318F28803122
:10087800902880319A2880319F2841012D082F0621
:10088800031D482C2C082E06031D4C2C01304D2C22
:100898000030B000B1013008A0003108A100080004
:1008A80040012D082F06031D5B2C2C082E06031D66
:1008B8005F2C0130602C0030F000F1017008A000BE
:1008C8007108A10008004001D401D501FF30920051
:1008D8007E01C3014E0116167E01C816C9160B17F4
:1008E8008B170800E130F200720840019705700884
:1008F8000F390907F200720897040800083042010E
:100908009F0090309D0024309E0019309B009C0170
:100918000800623051018D008F019101023093006F
:1009280090019201080040010D360F39F200F301E1
:100938007208F0007308F100080082318D228431BA
:1009480084318D24843184318224080040011111BE
:100958007E01381140011611080064008001013140
:06096800890BB22C0034E3
:020000040001F9
:0A000E00EC3FFF3B9F3FFF3FFF3F29
:00000001FF
