:040000008031CF2854
:100008007E14803140017F08FD007E01551C1028B8
:1000180055108231392280314E010C1ECA287E01CA
:10002800CA1ECA285330890B1728000040010D0E3C
:10003800890C0139FA00541823280130242800308B
:100048007A060319B928C8288431B3248031710885
:100058004001D3007008D2000F30FA007A089305E7
:100068000F30FA007A0898055208FA000330FA357A
:10007800FF3E031D3B287A35FB007B089804AD281A
:10008800023052065304031D5A285B08FB005A0825
:10009800FA000830FC007B0DFB0CFA0CFC0B4F2817
:1000A80003307A05F00000307B0573284230860063
:1000B8000030870030308400003085001030FA00AE
:1000C80016001A00FA0B642840015308C1005208B0
:1000D800C00083310E2380310E30F0000030F10073
:1000E800843192248031E130FA007A084001920587
:1000F800AD28023052065304031DB2285B08FB00EA
:100108005A08FA000430FC007B0DFB0CFA0CFC0BBF
:1001180088280F307A05F00000307B05A628AD2826
:100128000F305A05F00000305B05F100843192244D
:10013800803101304001D4070030D53DAD280E3064
:10014800F0000030F1008431922480310130400108
:10015800AE280130D4070030D53DC8281E30FA003B
:100168007A089204D401D501C8285508003A031921
:10017800BE28B628540884000A3004020318B6289A
:1001880084310435493E82007E01CA127D0840014F
:10019800FF007E1009008031D128423084000030F1
:1001A80085001A308431CD247E1040018031DC284E
:1001B8008431BD2480318431A9248031833197234F
:1001C80080318431C6248031843183248031FF30EA
:1001D800400193007E01CE01400193107E0153142B
:1001E8004101C901CA014001D801D901FF30DC0031
:1001F8000330DD00D601D7018131FB218031410177
:10020800CA1F99291318B0290D084001DB004101C4
:100218000C084001DA005908803A4101C600400143
:100228005B08803A41014602031D1D2940015A0816
:1002380058020318352940015B08D9005A08D8002C
:100248005C0858074101C60040015D08593D41015D
:10025800C700470D470C4001D7004101460C40013B
:10026800D60040015B08803A4101C60040015D08A4
:10027800803A41014602031D442940015C085A02A4
:1002880003185C2940015B08DD005A08DC005C08A3
:1002980058074101C60040015D08593D4101C700AA
:1002A800470D470C4001D7004101460C4001D600DC
:1002B8004001161C7A295608EC3E4101C600FF3061
:1002C8004001573D4101C70040015B08803A4101A8
:1002D800C8004708803A4802031D752946084001AE
:1002E8005A02031895294001161095295608143EFC
:1002F8004101C60000304001573D4101C700470891
:10030800803AC80040015B08803A41014802031D59
:10031800912940015A0841014602031895294001D4
:1003280016144101C901CA01B0294A08803AC60019
:1003380080304602031DA2290A304902031CAB295A
:1003480041011314FF30C900FF30CA00B029013041
:100358004101C9070030CA3D42308600003087009D
:10036800A0308400003085001030C60016001A0046
:10037800C60BBA2984315D2480314101200821044B
:100388000319D429032900298331E0238031032963
:100398008331BC238031032984310424803103292B
:1003A8004230860000308700B2308400003085007B
:1003B80010304101C60016001A00C60BDF29823131
:1003C8007422803141013308003A0319EC290329CA
:1003D8003208003A0319C729033A0319C829073A0A
:1003E8000319CC29013A0319D0290329032940010B
:1003F80098148B13FF30DC000330DD00D801D901DD
:10040800D601D701D401D5014230860000308700DB
:10041800A03084000030850010304101C50016006E
:100428001A00C50B132A84315D248131410120084B
:100438002104031D322A4230860000308700B23082
:1004480084000030850010304101C50016001A00F4
:10045800C50B2A2A823174228131082A40018D1E57
:100468000E18322A8B1798100800400198148B1325
:10047800FF30DC000330DD00D801D901D601D701F7
:10048800D401D50142308600003087002030840036
:10049800003085001030F90016001A00F90B502AB8
:1004A800843170248231400120082104031D6E2A02
:1004B80042308600003087003030840000308500EC
:1004C8001030F90016001A00F90B662A8231DE2274
:1004D8008231462A8D1E0E186E2A8B179810080036
:1004E800B230860000308700A030840000308500DC
:1004F80010304101C20016001A00C20B7F2A843155
:100508005D248231410120082104031DA42A3E35BF
:10051800B23E86008701403FC300413FC400063019
:10052800A0000030A1003E08013EA20000303F3D7F
:10053800A30083313E2341012108BF002008BE00EB
:100548004408B3004308B20008004001970196012F
:1005580098017E01B901C401CF01FF30B800FF3016
:10056800C3007F30CE00FF3040019200BF309300BF
:10057800FF30910000308B1B01304101A0008B132C
:1005880055307D018F00AA308F000F101730CB0037
:1005980010307E01A6000930A30055307D018F0080
:1005A800AA308F000F144101201CDC2A8B17080089
:1005B8008B1308003030860000308700203084001C
:1005C800003085001030F60016001A00F60BE82AF5
:1005D800843170248231400120082104031D080061
:1005E8003C35303E86008701403FF700413FF80028
:1005F8000630F0000030F1003C08013EF200003007
:100608003D3DF30083316B2371084001BD00700844
:10061800BC0008003030860000308700203084009D
:10062800003085001030F80016001A00F80B182B5F
:10063800843128248331400120082104031D080047
:100648003E35303E860087014008C03F4108C13F23
:100658000630F0000030F1003E08013EF2000030A4
:100668003F3DF30083316B2371084001BF007008E0
:10067800BE0008004101200821040319662BA501CA
:10068800A50AA11B512B0130A035A10D890B482BC0
:100698000130A4002408A507452B21082302031DC7
:1006A800572B20082202031C5D2B2008A2022108D8
:1006B800A33B0130A136A00C890B5E2B0130A502AB
:1006C800031D512B2308A1002208A0000800700870
:1006D80071040319922BF501F50AF11B7D2B0130EA
:1006E800F035F10D890B742B0130F4007408F5070F
:1006F800712B71087302031D832B70087202031C8F
:10070800892B7008F2027108F33B0130F136F00CC6
:10071800890B8A2B0130F502031D7D2B7308F1002C
:100728007208F00008004001DA01DB0101304101E4
:10073800940095019601990197139B019C01130858
:10074800F339043893009317131613131A121A1057
:100758009A101714971417111E149E101E119E112B
:100768001E129E124001111091147E01B814080047
:100778004101A101A2012208803AA0008030200294
:10078800031DC82B0F30210203180800400116155D
:100798007D30890BCD2B4001161106304101A00098
:1007A8000030890BD52BA00BD52B0032013041012D
:1007B800A1070030A23DBF2B4101A101A2012208DF
:1007C800803AA00080302002031DEC2B0F3021025C
:1007D80003180800400116154B30890BF12B400116
:1007E800161106304101A000E730890BF92BA00B48
:1007F800F92B003201304101A1070030A23DE32B63
:100808004101A101A2012208803AA0008030200203
:10081800031D102C0F302102031808004001161583
:10082800AF30890B152C4001161106304101A0008C
:10083800CE30890B1D2CA00B1D2C0032013041013C
:10084800A1070030A23D072C0630F0000030F1006F
:1008580040012E08013EF20000302F3DF3008331A5
:100868006B23843140012D087106031D3D2C2C0893
:100878007006031D412C0130422C0030F600F701B0
:100888007608A0007708A100080080312828803168
:10089800442880317C2880317D288031932880311C
:1008A80094288031A2288031A3288031AD28803156
:1008B800B22841012D082F06031D642C2C082E0692
:1008C800031D682C0130692C0030B000B1013008DC
:1008D800A0003108A100080040012D082F06031DC3
:1008E800772C2C082E06031D7B2C01307C2C003025
:1008F800F000F1017008A0007108A1000800400193
:10090800D401D501FF3092007E01C3014E011616B5
:100918007E01C816C9160B178B170800E130F200C4
:1009280072084001970570080F390907F20072082C
:1009380097040800083042019F0090309D00243041
:100948009E0019309B009C010800623051018D0007
:100958008F0191010230930090019201080040013B
:100968000D360F39F200F3017208F0007308F10038
:1009780008008231A92284318431A9248431843148
:100988009E240800400111117E0138114001161102
:0E0998000800640080010131890BCE2C003470
:020000040001F9
:0A000E00EC3FFF3B9F3FFF3FFF3F29
:00000001FF
